:020000040800F2
:10000000500D002001010008210F0008C70B000857
:100010001D0F0008ED090008DB1A000800000000B1
:10002000000000000000000000000000AD13000808
:10003000F1090008000000001D120008C1140008AA
:100040001B0100081B0100081B0100081B01000820
:100050001B0100081B0100081B0100081B01000810
:100060001B0100081B0100081B0100081B01000800
:100070001B0100081B0100081B0100081B010008F0
:100080001B0100081B0100081B0100081B010008E0
:100090001B0100081B0100081B0100081B010008D0
:1000A0001B0100081B0100081B0100081B010008C0
:1000B0001B010008791500081B0100081B0100083E
:1000C0001B0100081B0100081B0100081B010008A0
:1000D0001B0100081D1800081B0100081B01000877
:1000E0001B0100081B0100081B010008DFF80CD0F1
:1000F00000F0F4FA00480047DD1F0008500D002012
:100100000648804706480047FEE7FEE7FEE7FEE7B1
:10011000FEE7FEE7FEE7FEE7FEE7FEE7C5140008A0
:10012000ED000008F0B480EA0102D40F4200B2EB07
:10013000410F02D20246084611464A0042D0C30D82
:10014000DDB2C1F3C752AD1A202D35DAC1F3160165
:1001500041F4000204B15242C5F1200602FA06F150
:100160002A411044B3EBD05F23D0C4B1012DA0EBE2
:10017000C35009DCF0BC4FF0004202EAC352DBB2CC
:1001800000F5000000F01EBA400000F1807000EBA6
:10019000C350A0F1807040EAD170490009E04908DD
:1001A00041EAC071A0EBC35000F50000400800EB2D
:1001B000C350F0BC00F0FDB96142012202EB4101E5
:1001C000001BF6E7F0BC704781F00041AAE780F021
:1001D0000040A7E780EA010210B502F000434000AA
:1001E00022D04A001FD0010E01EB1261C0F356006D
:1001F000C2F3560240F4000042F40002A0FB0220C9
:1002000000047F39140400D0401C50EA124001D48D
:100210004000491EC2B20C0604EBD010401C40083E
:10022000802A02D003E0002010BD20F00100002948
:1002300000DA0020184310BD2DE9FE4F804681EA08
:100240000300C00F0C46009021F0004123F0004550
:10025000B8EB0200A94105D24046214690461C4613
:100260000B46024623F00040104347D0270DC7F34A
:100270000A00C3F30A510290401A019040286BDA39
:10028000C3F3130040F4801B0098924620B1002372
:10029000D2EB030A63EB0B0B01985946C0F1400205
:1002A000504600F065F906460D4650465946019AFB
:1002B00000F06DF910EB08006141002487EA11524B
:1002C00084EAE7731A4340D0009A62B3019A012A84
:1002D0004FEA075215DC001B61EB02014FF00042B0
:1002E00002EA0752CDE90042001C41F58011324676
:1002F0002B4600F0A4F903B0BDE8F08F404621463C
:10030000F9E7001B61EB0201001C41F580130018A6
:100310005B412018A2F5001747EB030140EAD570B6
:10032000B6196D4111E06D084FEA360645EAC07511
:100330004FEA0752001B61EB0201001C41F58011DE
:1003400049084FEA30000019514132462B4603B0AC
:10035000BDE8F04F00F064B900980122400000238E
:10036000D0EB020263EBE073009821464FEAE074A1
:10037000B8EB000061EB0401E9E783F000435BE7C1
:1003800081F0004158E72DE9FE4F81EA030404F0B3
:10039000004421F0004100944FF0000B23F0004393
:1003A00050EA01045ED052EA03045BD0C3F30A545E
:1003B000C1F30A552C44A4F2F3340194A0FB025477
:1003C000C1F3130141F48011C3F3130343F4801309
:1003D00001FB024400FB034E840A970A44EA81545D
:1003E00047EA8357A4FB076802958D0A05FB07853A
:1003F0004FEA932C04FB0C542705029D4FEA065844
:1004000047EA1637B5EB08056EEB070C870E920E20
:1004100047EA811742EA8312A7FB0201B6EB0B0100
:1004200064EB00042B0D43EA0C335E1844EB1C50C4
:10043000DA465146E7FB0201C5F313044FEA0B33DA
:1004400043EA14534FEA0432019C43EA0603A4F141
:100450000C040294009CCDE900B400F0F0F803B065
:10046000BDE8F08F00200146F9E7962300221146EF
:1004700000F0A8B80EB540F2334102910021CDE959
:1004800000110A460B4600F0DAF803B000BD00F098
:10049000004220F00040C10DC0F3160040F40000FF
:1004A0007F2901DA00207047962903DCC1F196010B
:1004B000C84001E096398840002AF4D04042704795
:1004C00020F00040C10DC0F3160040F400007F2969
:1004D00001DA00207047962903DCC1F19601C8407B
:1004E000704796398840704700F0004230F0004075
:1004F0000AD0C10D01F56071C0F3160042EA015146
:10050000C20840071143704700200146704701F0C0
:10051000004330B421F0004150EA010206D00A0D38
:10052000A2F56072C1F31301002A02DC30BC002086
:100530007047440F44EAC104C100E01830BC00EB2E
:10054000C25000F036B80000002801DBC0F10040C6
:10055000002901DBC1F1004181427047002801DB25
:10056000C0F10040002901DBC1F100418842704721
:10057000202A04DB203A00FA02F100207047914063
:10058000C2F1200320FA03F3194390407047202A58
:1005900006DBCB17203A41FA02F043EAE07306E0AB
:1005A00041FA02F3D040C2F12002914008431946BB
:1005B00070470029A8BF7047401C490008BF20F0C1
:1005C0000100704710B4B0FA80FC00FA0CF050EA59
:1005D000010404BF10BC704749B1CCF1200421FADA
:1005E00004F411FA0CF118BF012121430843A3EBD5
:1005F0000C01CB1D4FEA00614FEA102042BF0020E2
:1006000010BC704700EBC35010440029A4BF10BCBD
:100610007047401C490008BF20F0010010BC704723
:1006200010B5141E73F1000408DA401C41F10001FA
:1006300092185B411A4301D120F0010010BD2DE951
:10064000F04D92469B4611B1B1FA81F202E0B0FA48
:1006500080F220329046FFF78BFF04460F4640EAB7
:100660000A0041EA0B0153465A46084313D011468B
:1006700053EA010019D0C8F14002504600F040F89A
:1006800005460E46504659464246FFF771FF08435D
:1006900005D0012004E020463946BDE8F08D002059
:1006A000054346EAE0762C4337430A986305E40A9B
:1006B000A0EB08000022FD0A44EA47540A3002D5A4
:1006C00000200146E9E7010510196941DDE9084507
:1006D00000196941BDE8F04DA2E70000064C074D46
:1006E00006E0E06840F0010394E807009847103402
:1006F000AC42F6D3FFF7FEFC502E0008702E000827
:10070000202A04DB203A21FA02F00021704721FA66
:1007100002F3D040C2F120029140084319467047CD
:1007200070B58C1810F8015B15F0070301D110F8B3
:10073000013B2A1106D110F8012B03E010F8016BE0
:1007400001F8016B5B1EF9D12B0705D40023521E63
:100750000DD401F8013BFAE710F8013BCB1A921CCB
:1007600003E013F8015B01F8015B521EF9D5A142C9
:10077000D8D3002070BD21B1826842F001028260AE
:1007800003E0826822F001028260704710B50446DF
:100790001248844208D10121401500F07DFD00215E
:1007A000601500F079FD17E00D48844208D1012161
:1007B000001500F071FD0021201500F06DFD0BE02B
:1007C0000848844208D10121C80300F065FD0021DA
:1007D0004FF4004000F060FD10BD00000024014017
:1007E00000280140003C0140014600208A6802F0D8
:1007F00004020AB1012000E0002070470146C86CE5
:1008000080B270470246002013680B400BB10120F4
:1008100000E000207047014600208A6802F00802CC
:100820000AB1012000E000207047000030B5024608
:100830000020002350680F4C20400D790C6844EADA
:1008400005242043506090680B4C2040D1E90254AD
:100850002C434D7944EA450420439060D06A20F44B
:1008600070000C7C641EE4B2234340EA0350D06263
:1008700030BD0000FFFEF0FFFDF7F1FFF0B50446CC
:100880000D4600200021092D11DDE068A5F10A06C2
:1008900006EB4607072606FA07F18843A5F10A0684
:1008A00006EB460603FA06F10843E0600CE0206917
:1008B00005EB4507072606FA07F1884305EB4506D1
:1008C00003FA06F108432061072A0FDA606B561E0F
:1008D00006EB86071F2606FA07F18843561E06EB2D
:1008E000860605FA06F10843606322E00D2A0FDA56
:1008F000206BD61F06EB86071F2606FA07F18843F2
:10090000D61F06EB860605FA06F10843206310E0C1
:10091000E06AA2F10D0606EB86071F2606FA07F12C
:100920008843A2F10D0606EB860605FA06F1084398
:10093000E062F0BD816841F008018160704721B13B
:10094000826842F4A002826003E0826822F4A0027E
:1009500082607047816841F0040181607047000047
:1009600000B587B001214FF4017000F085FC4FF411
:10097000004000F055FC0220ADF8040000208DF886
:10098000070001A9174800F047F81748FFF7FEFED7
:10099000002002908DF80C008DF80D004FF46020BF
:1009A00004900020059001208DF8180002A90E483F
:1009B000FFF73CFF01210C48FFF7DDFE0A48FFF777
:1009C000B9FF00BF0848FFF726FF0028FAD1064804
:1009D000FFF7C0FF00BF0448FFF706FF0028FAD169
:1009E00007B000BD000801400024014000BFFEE741
:1009F0007047000008B50820ADF8000003208DF80E
:100A0000020018208DF803006946024800F004F83F
:100A100008BD0000000801402DE9F0410246002514
:100A20000026002000230024002791F803C00CF0CA
:100A30000F0591F803C00CF0100CBCF1000F03D0AF
:100A400091F802C04CEA050591F800C0BCF1000F16
:100A500031D0146800202BE04FF0010C0CFA00F3A9
:100A6000B1F800C00CEA03069E4220D183004FF08B
:100A70000F0C0CFA03F7BC4305FA03FC4CEA040420
:100A800091F803C0BCF1280F06D14FF0010C0CFA0D
:100A900000FCC2F814C00AE091F803C0BCF1480F92
:100AA00005D14FF0010C0CFA00FCC2F810C0401C3C
:100AB0000828D1D31460B1F800C0BCF1FF0F34DDB9
:100AC000546800202EE000F1080C4FF0010808FAED
:100AD0000CF3B1F800C00CEA03069E4221D183005A
:100AE0004FF00F0C0CFA03F7BC4305FA03FC4CEA79
:100AF000040491F803C0BCF1280F05D100F1080CE3
:100B000008FA0CF8C2F8148091F803C0BCF1480F41
:100B100007D100F1080C4FF0010808FA0CF8C2F8F0
:100B20001080401C0828CED35460BDE8F0810246F6
:100B3000002093680B400BB1012000E000207047BB
:100B400002460020D3680B400BB1012000E00020DA
:100B5000704741617047016170470AB1016100E06F
:100B60004161704710B50446072301222146094818
:100B7000FFF784FE01210748FFF7E1FE00BF0221D5
:100B80000448FFF73FFE0028F9D00248FFF736FE81
:100B900010BD0000002401402DE9F04107460C463D
:100BA0000025002608E03846FFF7DCFF0544052055
:100BB00001F088F8701CC6B2A642F4DBB5FBF4F075
:100BC00080B2BDE8F08100BFFEE770B502460024A8
:100BD000002500230020958A138B1B0445EA030699
:100BE00026F07F4404EA01068E4201D1012000E094
:100BF000002070BD21B1028842F00102028004E0B1
:100C000002884FF6FE731A400280704700B585B027
:100C10000121480500F010FB0121082000F02CFB09
:100C2000C020ADF8000003208DF802001C208DF8D4
:100C3000030069461148FFF7EFFE114800F024F861
:100C40000020ADF808004BF6FF70ADF80A00302028
:100C5000ADF80C004FF48060ADF80E000001ADF867
:100C600010000848019001A9054800F05FF8012133
:100C70000348FFF7BFFF05B000BD0000000C0140B6
:100C800000540040801A060010B504460B48844208
:100C900009D10121480500F0DFFA00214FF40010CE
:100CA00000F0DAFA08E00121880500F0D5FA002109
:100CB0004FF4800000F0D0FA10BD00000054004056
:100CC00021B1028842F48072028004E002884FF66B
:100CD000FF631A400280704721B1028842F400721B
:100CE000028004E002884FF6FF531A4002807047EA
:100CF0000CB50246002000230193009300920B0FD5
:100D0000019321F07F41019B1BB1009B14330093A1
:100D100003E0090C009B18330093009B1B680B40F9
:100D20000BB1012000E000200CBD00002DE9F043D4
:100D300085B004460D460026B1460427DFF8CC8076
:100D4000A6884FF6C0700640684600F0C5FADDF888
:100D500008802F48B8FBF0F01FFA80F946EA090630
:100D6000A68020884FF6FE71084020800026294981
:100D7000286888420CD828684000B8FBF0F087B299
:100D8000042F00DA04273E4309F10100208427E004
:100D9000E8884BF6FF71884206D1286800EB4000D6
:100DA000B8FBF0F087B209E0286800EBC00101EB66
:100DB0000010B8FBF0F087B247F48047C7F30B0090
:100DC00008B947F0010747F4004006434FF4967016
:100DD00009FB00F04FF47A7190FBF1F0401C208485
:100DE000A683208840F00100208026884FF6F53049
:100DF0000640A8886989084306432680A88929896E
:100E00000843208105B0BDE8F083000000127A009D
:100E100040420F00A086010012B141F0010102E042
:100E20004FF6FE731940018270470182704700003F
:100E300070B504460D4600BF4FF400311C48FFF763
:100E400057FF0028F8D101211948FFF739FF00BFEB
:100E500018491748FFF7B9FE0028F9D00022782179
:100E60001348FFF7D9FF00BF13491148FFF7ADFE44
:100E70000028F9D021460E48FFF7D7FF00BF0E49E2
:100E8000891C0B48FFF7A1FE0028F8D02946084826
:100E9000FFF7CBFF00BF0849891C0548FFF795FE07
:100EA0000028F8D001210248FFF716FF70BD0000AE
:100EB00000540040010003008200070008B5012132
:100EC000042000F0D9F90121082000F0D5F9802094
:100ED000ADF8000010208DF8030003208DF802000B
:100EE00069460C48FFF798FD0320ADF8000010207C
:100EF0008DF8030003208DF8020069460648FFF7CD
:100F00008BFD80210348FFF726FE03210248FFF7EF
:100F100022FE08BD00080140000C014000BFFEE7B2
:100F20007047000070B5002100230F22C47804B37D
:100F3000154C246804F4E064C4F5E064210AC1F1AE
:100F40000403CA40447804FA03F18478144021432E
:100F500009010E4C0678A155047804F01F05012400
:100F6000AC4005786D11AD0005F1E025C5F80041F4
:100F700009E0047804F01F050124AC40044D067814
:100F8000761145F8264070BD0CED00E000E400E06D
:100F900080E100E002490143024A1160704700000D
:100FA0000000FA050CED00E010B5002000F001F89B
:100FB00010BD70B50646002415E004F1B001C8B2BA
:100FC00000F08DFD002000F08AFD102000F087FD6C
:100FD000002504E0304600F089FD681CC5B2802D74
:100FE000F8DB601CC4B2082CE7DB70BD10B56420D0
:100FF00000F068FEAE2000F072FD202000F06FFDD2
:10100000102000F06CFDB02000F069FDC82000F059
:1010100066FD002000F063FD102000F060FD402020
:1010200000F05DFD812000F05AFDFF2000F057FD2B
:10103000A12000F054FDA62000F051FDA82000F0F2
:101040004EFD3F2000F04BFDA42000F048FDD320D2
:1010500000F045FD002000F042FDD52000F03FFDEE
:10106000F02000F03CFDD92000F039FD222000F0F6
:1010700036FDDA2000F033FD122000F030FDDB20D9
:1010800000F02DFD202000F02AFD8D2000F027FD2E
:10109000142000F024FDAF2000F021FD10BD10B59C
:1010A0008D2000F01CFD142000F019FDAF2000F091
:1010B00016FD10BD70B504460D4605F1B001C8B26D
:1010C00000F00DFD102141EA141000F008FD04F0BD
:1010D0000F0141F0010000F002FD70BD2DE9F0416B
:1010E00080460E46174600247D0131464046FFF7F4
:1010F000E1FF00BF06E00D49485D00F0F7FC6D1C04
:10110000601CC4B2102CF6DB701CC1B24046FFF765
:10111000D1FF002406E00549485D00F0E7FC6D1CA6
:10112000601CC4B2102CF6DBBDE8F0811602002072
:101130002DE9F0470646894617469A464FF00008C3
:1011400000240025BAF1010F03D0BAF1020F5ED1DD
:1011500025E020E0785D203800F0FF087E2E04DDD9
:10116000002609F1010000F0FF0949463046FFF76B
:10117000A1FF002409E008EB4801264A02EB4101E7
:10118000085D00F0B3FC601CC4B2062CF3DBB01D9C
:10119000C6B2681CC5B2785D0028DBD137E032E00A
:1011A000785D203800F0FF08782E04DD002609F174
:1011B000010000F0FF0949463046FFF77BFF00249D
:1011C00007E004EB0811144A505C00F08FFC601C2F
:1011D000C4B2082CF5DB09F10100C1B23046FFF7BB
:1011E00069FF002408E004EB081108310A4A505C4A
:1011F00000F07CFC601CC4B2082CF4DB06F1080093
:10120000C6B2681CC5B2785D0028C9D100BF00BF56
:10121000BDE8F08738260008602800087047000005
:1012200001460020034A506820F4404008435060C3
:10123000704700000010024029B1064AD2690243FB
:10124000044BDA6104E0034AD2698243014BDA615C
:10125000704700000010024029B1064A126902439B
:10126000044B1A6104E0034A12698243014B1A617C
:10127000704700000010024029B1064A92690243FB
:10128000044B9A6104E0034A92698243014B9A61DC
:10129000704700000010024029B1064AD26802439C
:1012A000044BDA6004E0034AD2688243014BDA60FF
:1012B000704700000010024010B500F003F9012152
:1012C0000846FFF7B9FF01210846FFF7D5FF0121C6
:1012D0000420FFF7D1FF10BD30B50021002200240B
:1012E00000232D4D6D6805F00C0121B1042905D0B6
:1012F000082923D105E0294D056022E0274D05602E
:101300001FE0254D6D6805F47012234D6D6805F4DE
:101310008034022505EB92421CB9214D55430560EE
:101320000BE01D4D6D6805F400351DB11C4D554396
:10133000056002E0194D5543056002E0174D056058
:1013400000BF00BF144D6D6805F0F0010909154D8F
:101350006B5C0568DD4045600F4D6D6805F4E0612C
:10136000090A104D6B5C4568DD4085600A4D6D686B
:1013700005F46051C90A0B4D6B5C4568DD40C560E2
:10138000054D6D6805F44041890B074D6B5CC568E0
:10139000B5FBF3F5056130BD0010024000127A0084
:1013A00000093D00F801002008020020704710B538
:1013B00000F002F810BD00000CB500200190009074
:1013C0003348006840F480303149086000BF30483D
:1013D000006800F4003000900198401C01900098D3
:1013E00018B90198B0F5A06FF1D12948006800F450
:1013F000003010B10120009001E000200090009822
:10140000012843D12348006840F0100021490860BA
:101410000846006820F0030008600846006840F0B5
:10142000020008601A484068194948600846406848
:1014300048600846406840F480604860084640685C
:1014400020F47C1048600846406840F4E81048608A
:101450000846006840F08070086000BF0C480068D3
:1014600000F000700028F9D00948406820F003001F
:10147000074948600846406840F00200486000BFE5
:101480000348406800F00C000828F9D10CBD0000AA
:101490000010024000200240042808D14FF0E02153
:1014A000096941F004014FF0E022116107E04FF0BB
:1014B000E021096921F004014FF0E0221161704739
:1014C0007047000010B51348006840F00100114952
:1014D000086008464068104908400E4948600846C0
:1014E00000680E4908400B4908600846006820F46F
:1014F000802008600846406820F4FE0048604FF4F1
:101500001F008860FFF753FF4FF000600449086038
:1015100010BD0000001002400000FFF8FFFFF6FEC3
:1015200008ED00E030B587B005460C46ADF8145024
:10153000ADF810400020ADF81600ADF8120004A977
:101540004FF0804000F0F2F86020ADF8000001207C
:10155000ADF802000020ADF8080069464FF0804069
:1015600000F096F80821C80600F0D0F8012188079D
:1015700000F068F807B030BD10B501211C4800F03C
:101580006DF8002833D080211A48FFF7D9FAC0F14E
:101590000100C4B2224680211648FFF7DEFA01217D
:1015A000134800F04CF814480078401C12490870A9
:1015B000012012490870104800780F2805DB01202F
:1015C0000F49087000200C4908700E48007870B16F
:1015D0000D480088401C0C490880084600880A28ED
:1015E00005DB00200880094908700649087010BD15
:1015F000000400400008014081080020830800200A
:1016000082080020800800207E0800207A08002040
:1016100008B54FF4A060FFF7BDFC1D208DF8000059
:1016200000208DF8010001208DF802008DF80300E4
:101630006846FFF777FC08BDCA4302827047CA4379
:101640000282704721B1028842F00102028004E068
:1016500002884FF6FE731A400280704730B502468A
:10166000002000230024158A05EA0103958905EA74
:10167000010413B10CB1012000E0002030BD1AB10B
:1016800083890B43838102E083898B438381704785
:1016900070B5002200230024058C4EF6FF763540FD
:1016A0000584038C8488828B48F6FF752A404FF6A8
:1016B000FF452A400D884FF6FF7606EA05252A43A6
:1016C0004DF6FF752B400D8906EA05352B434D88F5
:1016D00006EA05352B430B4DA84202D00A4DA8421D
:1016E00008D14BF6FF752C408D894FF6FF7606EA40
:1016F00085152C4384808283CD88A0F840500384D4
:1017000070BD0000002C0140003401400A46002159
:10171000818B4FF2FF7319404FF6FF7303EA0223E8
:10172000194381837047A0F8401070470022028857
:101730001D4B98420ED01D4B98420BD0B0F1804FFC
:1017400008D01B4B984205D01A4B984202D01A4B36
:10175000984204D14FF68F731A404B881A43174BA7
:10176000984207D0164B984204D04FF6FF431A40D8
:10177000CB881A4302808B8883850B8803850A4BAC
:1017800098420BD0094B984208D00E4B984205D096
:101790000D4B984202D00D4B984201D10B7A038633
:1017A0000123838270470000002C01400034014077
:1017B0000004004000080040000C00400010004001
:1017C0000014004000400140004401400048014036
:1017D0000EB501210220FFF72FFD48F69F40ADF81E
:1017E000040040F2CF70ADF800000020ADF8060014
:1017F000ADF8020069460848FFF798FF0121064846
:10180000FFF71AFF012211460348FFF738FF0121B5
:101810000148FFF717FF0EBD0004004010B540F26D
:1018200025511D4800F098F810B31B4800F050F9FE
:10183000C4B21A48008800F40040C8B917480088AC
:1018400000F4804060B10A2C03D0002013490880C6
:1018500020E01248008840F400401049088019E058
:101860000D2C06D10D48008840F480400B490880BB
:1018700010E00A480088C0F30D0009490C540748DD
:101880000088401C0549088008460088C72801DDFB
:101890000020088010BD0000003801401402002024
:1018A0008408002021B1828942F40052828104E040
:1018B00082894DF6FF731A408281704710B5044645
:1018C0002048844209D101218803FFF7E5FC00216B
:1018D0004FF48040FFF7E0FC32E01B48844209D11E
:1018E00001214804FFF7B8FC00214FF40030FFF756
:1018F000B3FC25E01548844209D101218804FFF793
:10190000ABFC00214FF48020FFF7A6FC18E0104844
:10191000844209D10121C804FFF79EFC00214FF445
:101920000020FFF799FC0BE00A48844208D101210E
:101930000805FFF791FC00214FF48010FFF78CFCA5
:1019400010BD000000380140004400400048004045
:10195000004C00400050004070B5024600240023B7
:101960000025002040F66A16B14200D100BFC1F345
:10197000421501F01F03012606FA03F3012D02D1DF
:101980009689334006E0022D02D1168A334001E0E9
:10199000968A33400C12012606FA04F41688344065
:1019A00013B10CB1012000E0002070BDF0B503467A
:1019B000002400260025002040F66A17B94200D115
:1019C00000BF1846C1F3421401F01F06012707FAB1
:1019D00006F5012C01D10C3004E0022C01D11030AD
:1019E00000E014301AB107682F43076002E007686F
:1019F000AF430760F0BD00002DE9F04786B0054613
:101A00000E460024A24600BFA1460027B08900B1BF
:101A100000BF2F462C8A4CF6FF700440F088044328
:101A20002C82AC894EF6F3100440B088318908430B
:101A3000718908430443AC81AC8A4FF6FF400440EF
:101A4000B0890443AC8201A8FFF746FC1F488742D7
:101A500002D1DDF810A001E0DDF80CA0A88900F4A7
:101A6000004040B10AEBCA0000EB0A10316849009F
:101A7000B0FBF1F807E00AEBCA0000EB0A1031688E
:101A80008900B0FBF1F86420B8FBF0F004012009F4
:101A9000642101FB1089A88900F4004040B1322084
:101AA00000EBC900B0FBF1F000F00700044308E0D0
:101AB000322000EB09106421B0FBF1F000F00F00C0
:101AC00004432C8106B0BDE8F087000000380140D7
:101AD00001468888C0F30800704700BFFEE710B5D4
:101AE000044621460020FFF7A3F910BD10B50446B7
:101AF00021464020FFF79CF910BD00000FB4054BB4
:101B000010B503A9044A029800F017F810BC5DF85C
:101B100014FB0000111D00081002002002E008C89C
:101B2000121F08C1002AFAD170477047002001E057
:101B300001C1121F002AFBD170472DE9F84F9946C9
:101B4000924688460546002706E025280AD05146D9
:101B50004A4690476D1C7F1C28780028F5D13846EE
:101B6000BDE8F88F002315F8011F18462E2915D15E
:101B700015F8011F04232A290DD06FF02F022978B0
:101B8000A1F13004092C09D800EB800002EB4000E1
:101B900008446D1CF3E758F8040B6D1C2A78002AE2
:101BA000DDD0632A07D0732A0FD0104651464A462B
:101BB00090477F1C2AE018F8042B8DF800200021A4
:101BC0008DF801106E46012103E058F8046B4FF0C8
:101BD000FF315A074FF0000401D409E0641C84422D
:101BE0000BDA8C42FADB325D002AF7D105E0641C87
:101BF0008C42FCDB305D0028F9D1274404E016F864
:101C0000010B51464A469047641EF8D26D1CA3E76B
:101C100070B50446002511E04FF400510948FEF765
:101C200098FF3C2000F04EF84FF400510548FEF7B5
:101C300092FF3C2000F046F8681CC5B2A542EBDBE1
:101C400070BD00000010014008B501211020FFF711
:101C500013FB4FF40050ADF8000010208DF8030086
:101C600003208DF8020069460448FEF7D5FE4FF4C4
:101C700000510248FEF76FFF08BD00000010014050
:101C800010B56FF00400FFF707FC0A4800680A4926
:101C9000B0FBF1F0094908700846007800EB4001FC
:101CA000C1EBC0104FF6FF7101EAC0000449088083
:101CB00010BD0000E401002000127A000C02002098
:101CC0000E0200200146114A12884A434FF0E023D9
:101CD0005A6100229A611A46126942F001021A61A1
:101CE00000BF4FF0E022106900F001021AB100F4C9
:101CF0008032002AF5D04FF0E022126922F0010272
:101D00004FF0E0231A6100229A6170470E02002012
:101D100000BF054A128802F04002002AF9D0C2B280
:101D2000014B1B1D1A8070470038014030B5034637
:101D30001C46012005E000EB800568000A2594FBA5
:101D4000F5F40A2CF7DA11E0012803D112B12E259F
:101D500001F8015B93FBF0F5303501F8015B93FB73
:101D6000F0F500FB15330A2590FBF5F00028EBDCBD
:101D700000250D7030BD000008B501210420FFF7DB
:101D80007BFA1320ADF8000048208DF80300694667
:101D90000148FEF741FE08BD0008014010B51021C2
:101DA0006648FEF7C4FE00283CD12820FFF78AFFD2
:101DB00010216248FEF7BBFE002833D10120FFF757
:101DC00027FF5F480078401C5D49087000205D498E
:101DD0000880FFF764F900BF10215848FEF7A7FEFE
:101DE0000028F9D056480078012805D156490870D6
:101DF000564908705649087051480078022804D1A5
:101E0000514908700120514908704D480078032855
:101E100008D100204C49087001204C49087000206E
:101E2000474908704648007800287CD00221434882
:101E3000FEF77DFE00283CD12820FFF743FF02215A
:101E40003E48FEF774FEA0BB0120FFF7E1FE002034
:101E50003C49088000BF02213848FEF768FE002890
:101E6000F9D03748007801280DD13A480078401C55
:101E700038490870084600781E2804DD1E200870C6
:101E80000120FFF7C5FE2E480078022811D1324804
:101E90000088643000B2304908800846B0F900007C
:101EA000B0F5FA6F05DB40F2CF7008800120FFF734
:101EB000AFFE01212148FEF73AFEA0BB2820FFF724
:101EC00001FF01211D48FEF732FE60BB0120FFF734
:101ED0009FFE00201B49088000BF01211748FEF724
:101EE00026FE0028F9D01648007801280DD119489F
:101EF0000078401E1749087008460078142804DA54
:101F0000142008700120FFF783FE0D480078022896
:101F100013D111480088643800B20F490880084680
:101F2000B0F9000000E008E0B0F5167F05DC4FF4E2
:101F3000487008800120FFF76BFE10BD00080140CB
:101F40007B0800207E0800207A0800207C08002002
:101F5000800800207608002078080020F0B50346AD
:101F60000E460024701E85B2002733F814009042FC
:101F700001DCE0B2F0BD33F81500904201DBE8B2BD
:101F8000F8E722E0601900EBD07CCCF34F0133F886
:101F90001100904200D11AE033F81100904205DDA3
:101FA000481C33F81000904200DA10E033F81100BA
:101FB000904201DA0D4600E00C46384607F1010C6C
:101FC0000CF0FF07B04200DD01E0AC42DADB00BFFD
:101FD000AC4201DD0020CDE7C8B2CBE786B04FF0C0
:101FE000000B2220049040F2CF7002904FF46174F5
:101FF000FFF762F9FEF7FEFC00210298FFF792FA64
:10200000FFF73EFEE00100F0C3FAFEF7A9FCFEF781
:1020100055FFFFF719FEFEF7F9FDFEF7E7FFFFF7A3
:10202000ABFEFFF7BBFEFEF7BFFFFFF7D1FBFFF7ED
:10203000EFFA002509E0012101EB0511C8B22A469B
:102040000021FFF74BF8681CC5B2082DF3DB4FF4F5
:102050000051F948FEF77DFDC820FFF733FE4FF42D
:102060000051F548FEF777FDC820FFF72BFE4FF42F
:102070000051F148FEF76DFDC820FFF723FE4FF435
:102080000051ED48FEF767FD4FF4C870FFF71AFEE8
:102090004FF40051E848FEF75CFDC820FFF712FE40
:1020A0004FF40051E448FEF756FDC820FFF70AFE42
:1020B0004FF40051E048FEF74CFDC820FFF702FE48
:1020C0004FF40051DC48FEF746FDC820FFF7FAFD4B
:1020D00039E20A210520FEF75FFD81464846FEF7FA
:1020E000C4F90090FEF700FA07464FF06632D34B72
:1020F000FEF749F90546FEF70AFA82464A46F121FB
:10210000CF48FFF72BFF0590059800F025FA82468F
:10211000CC480078002876D1CB48007828B1002040
:10212000FEF747FF0020C8490870002509E001219B
:1021300001EB0511C8B22A460021FEF7CFFF681C4B
:10214000C5B2082DF3DB08250BE0A5F108011F221D
:1021500002EB0111C8B22A460221FEF7BFFF681C3C
:10216000C5B20C2DF1DB0C2204210020FEF7B6FFD6
:102170000D2204211020FEF7B1FFB4495046FEF7AE
:1021800029F803900398FEF782F90546012201A978
:10219000FFF7CCFD022301AA04212020FEF7C8FF8F
:1021A000FFF7FCFD112204214220FEF797FF1222C7
:1021B00004215220FEF792FF002201A9A4480078D2
:1021C000FFF7B4FD022301AA04216220FEF7B0FF4D
:1021D0000E2206210020FEF781FF0F22062110208B
:1021E000FEF77CFF102206212020FEF777FF002259
:1021F00001A998480088FFF799FD022301AA06214A
:102200003020FEF795FF8F48007801285FD1FFF757
:10221000C5FD8D48007828B10020FEF7CAFE0020D9
:1022200089490870002509E0012101EB0511C8B2B8
:102230002A460021FEF752FF681CC5B2082DF3DBC9
:102240000C2202211F20FEF749FF0D2202212F2020
:10225000FEF744FF112202213F20FEF73FFF12222A
:1022600002214F20FEF73AFF0C2204211F20FEF727
:1022700035FF0D2204212F20FEF730FF7349504611
:10228000FDF7A8FF03900398FEF701F90546012228
:1022900001A9FFF74BFD022301AA04213F20FEF70D
:1022A00047FF112206211F20FEF718FF12220621E8
:1022B0002F20FEF713FF002201A965480078FFF7E1
:1022C00035FD022301AA06213F20FEF731FF5D48BC
:1022D0000078022864D1FFF761FD5B48007828B1DF
:1022E0000020FEF766FE002057490870002509E02F
:1022F000012101EB0511C8B22A460021FEF7EEFECE
:10230000681CC5B2082DF3DB062202211F20FEF750
:10231000E5FE092202212F20FEF7E0FE0A2202211B
:102320003F20FEF7DBFE0B2202214F20FEF7D6FEF8
:102330000C2204211F20FEF7D1FE0D2204212F20A4
:10234000FEF7CCFE41495046FDF744FF0390039849
:10235000FEF79DF80546012201A9FFF7E7FC0223DD
:1023600001AA04213F20FEF7E3FE0E2206210F20E2
:10237000FEF7B4FE0F2206211F20FEF7AFFE10224B
:1023800006212F20FEF7AAFE002201A9314800886D
:10239000FFF7CCFC022301AA06213F20FEF7C8FE6E
:1023A0002B480078FEF761F805465146FEF7D6F84F
:1023B00002D20024A3460EE0BBF1000F0BD140F285
:1023C000CF714FF08040FFF7AEF94FF47A70FFF70E
:1023D00079FC4FF0010B0498FEF747F8054651468B
:1023E000FEF7BCF814D21A480078FEF73EF805460E
:1023F0005146FEF7A9F80BD817495046FDF7E4FE01
:1024000006461649FDF7E6FE0546FEF759F884B282
:102410000498FEF72AF805465146FEF795F801D8CC
:1024200040F2CF7407480078022819D021464FF0B7
:102430008040FFF778F919E00010014066664A3FD6
:10244000000000207A0800207C08002000002041C5
:102450007608002078080020000060410000C84293
:10246000394801884FF08040FFF75DF9002201A94B
:102470002046FFF75BFC022301AA06216020FEF73D
:1024800057FE3248007800285AD0AA2130A0FFF722
:1024900035FB0398FDF7FBFF1FFA80F94D464FEA25
:1024A000E97009EB1060011229A0FFF727FB4FEA42
:1024B000E97009EB10600012A9EB002124A0FFF7DE
:1024C0001DFB2448017822A0FFF718FB2546E017E2
:1024D00004EB106001121EA0FFF710FBE01704EBE5
:1024E00010600012A4EB002119A0FFF707FB1648AB
:1024F0000588E81705EB1060011215A0FFF7FEFA3A
:1025000011480588E81705EB10600012A5EB0021C3
:102510000FA0FFF7F3FA0398FDF7B9FF0D4909780B
:1025200008442044084909884518294608A0FFF7AF
:10253000E5FAFF2106A0FFF7E1FA00200349087041
:102540002820FFF7BFFBC4E578080020830800209F
:1025500025630A00760800202DE9F05F8246504688
:10256000FDF788FF80460022074BFDF70CFF06466B
:102570000022064BFDF701FF0446FDF7C8FF834626
:102580005846BDE8F09F00000000E03F00003440E6
:1025900010B586B00446012144F20400FEF76CFE3B
:1025A0002348FFF78BF94FF40070ADF814000320B7
:1025B0008DF8160018208DF8170005A91D48FEF7A4
:1025C0002BFA4FF48060ADF8140004208DF817004A
:1025D00005A91848FEF720FA25208DF800000320F1
:1025E0008DF801008DF8020001208DF80300684687
:1025F000FEF798FC01940020ADF80800ADF80A0041
:10260000ADF80C00ADF810000C20ADF80E0001A9DB
:102610000748FFF7F1F9012240F225510448FFF77E
:10262000C5F901210248FFF73DF906B010BD0000D1
:1026300000380140000801400000000000000000D8
:10264000002F000000000700070000147F147F1413
:1026500000242A7F2A120062640813230036495599
:10266000225000000503000000001C224100000071
:1026700041221C000014083E08140008083E080807
:10268000000000A060000008080808080000606062
:102690000000002010080402003E5149453E0000A1
:1026A000427F4000004261514946002141454B3183
:1026B000001814127F10002745454539003C4A494F
:1026C00049300001710905030036494949360006C1
:1026D0004949291E00003636000000005636000029
:1026E00000081422410000141414141400004122A4
:1026F000140800020151090600324959513E007C7C
:102700001211127C007F49494936003E4141412265
:10271000007F4141221C007F49494941007F09094E
:102720000901003E4149497A007F0808087F0000FE
:10273000417F4100002040413F01007F08142241B9
:10274000007F40404040007F020C027F007F040871
:10275000107F003E4141413E007F09090906003ECD
:102760004151215E007F09192946004649494931F6
:102770000001017F0101003F4040403F001F204019
:10278000201F003F4038403F0063140814630007D7
:102790000870080700615149454300007F4141002E
:1027A00000552A552A55000041417F0000040201CE
:1027B00002040040404040400000010204000020AC
:1027C00054545478007F48444438003844444420EA
:1027D00000384444487F00385454541800087E0997
:1027E00001020018A4A4A47C007F0804047800005F
:1027F000447D4000004080847D00007F102844001C
:102800000000417F4000007C04180478007C08042C
:10281000047800384444443800FC24242418001868
:10282000242418FC007C0804040800485454542054
:1028300000043F444020003C4040207C001C2040DD
:10284000201C003C4030403C004428102844001C20
:10285000A0A0A07C004464544C4414141414141418
:102860000000000000000000000000000000000068
:10287000000000F8000000000000003330000000FD
:1028800000100C06100C0600000000000000000004
:1028900040C07840C0784000043F04043F04040076
:1028A000007088FC08300000001820FF211E000086
:1028B000F008F000E018000000211C031E211E009B
:1028C00000F00888700000001E2123241927211021
:1028D00010160E00000000000000000000000000C4
:1028E000000000E01804020000000007182040006B
:1028F00000020418E000000000402018070000005B
:10290000404080F0804040000202010F01020200BE
:10291000000000F0000000000101011F01010100A2
:10292000000000000000000080B070000000000007
:102930000000000000000000000101010101010190
:102940000000000000000000003030000000000027
:1029500000000000806018040060180601000000FC
:1029600000E010080810E000000F102020100F00F9
:10297000001010F8000000000020203F2020000080
:1029800000700808088870000030282422213000D8
:1029900000300888884830000018202020110E00E0
:1029A0000000C02010F8000000070424243F240089
:1029B00000F80888880808000019212020110E005E
:1029C00000E0108888180000000F112020110E0070
:1029D00000380808C83808000000003F0000000068
:1029E0000070880808887000001C222121221C0029
:1029F00000E010080810E0000000312222110F0052
:102A0000000000C0C00000000000003030000000E6
:102A10000000008000000000000080600000000056
:102A2000000080402010080000010204081020006F
:102A300040404040404040000404040404040400BA
:102A4000000810204080000000201008040201004F
:102A5000007048080808F00000000030360100004F
:102A6000C030C828E810E0000718272423140B0002
:102A70000000C038E0000000203C2302022738207C
:102A800008F8888888700000203F202020110E0060
:102A9000C030080808083800071820202010080057
:102AA00008F808080810E000203F202020100F0040
:102AB00008F88888E8081000203F2020232018000C
:102AC00008F88888E8081000203F20000300000074
:102AD000C03008080838000007182020221E020015
:102AE00008F808000008F808203F210101213F20D4
:102AF000000808F8080800000020203F20200000FF
:102B000000000808F8080800C08080807F000000EE
:102B100008F888C028180800203F20012638200027
:102B200008F8080000000000203F2020202030008E
:102B300008F8F800F8F80800203F003F003F2000A8
:102B400008F830C00008F808203F200007183F00B0
:102B5000E01008080810E0000F10202020100F00DF
:102B600008F808080808F000203F210101010000D2
:102B7000E01008080810E0000F18242438504F0017
:102B800008F8888888887000203F2000030C3020D7
:102B900000708808080838000038202121221C0015
:102BA000180808F8080818000000203F200000005E
:102BB00008F808000008F808001F202020201F0047
:102BC0000878880000C83808000007380E010000A7
:102BD000F80800F80008F800033C0700073C030071
:102BE000081868808068180820302C03032C3020D7
:102BF0000838C800C83808000000203F2000000046
:102C000010080808C838080020382621202018009D
:102C1000000000FE020202000000007F4040400071
:102C2000000C30C000000000000000010638C000A9
:102C300000020202FE000000004040407F00000051
:102C40000000040202020400000000000000000076
:102C50000000000000000000808080808080808074
:102C6000000202040000000000000000000000005C
:102C700000008080808000000019242222223F2052
:102C800008F8008080000000003F112020110E0095
:102C90000000008080800000000E11202020110024
:102CA000000000808088F800000E112020103F20D6
:102CB0000000808080800000001F2222222213005A
:102CC000008080F0888888180020203F20200000A5
:102CD0000000808080808000006B9494949360005A
:102CE00008F8008080800000203F210000203F2065
:102CF00000809898000000000020203F2020000065
:102D0000000000809898000000C08080807F000054
:102D100008F8000080808000203F24022D30200031
:102D2000000808F8000000000020203F20200000DC
:102D30008080808080808000203F20003F20003FF6
:102D40008080008080800000203F210000203F2004
:102D50000000808080800000001F202020201F00B5
:102D6000808000808000000080FFA12020110E00E4
:102D70000000008080808000000E112020A0FF80D5
:102D8000808080008080800020203F212000010082
:102D900000008080808080000033242424241900D7
:102DA000008080E0808000000000001F20200000E4
:102DB0008080000000808000001F202020103F2025
:102DC000808080000080808000010E3008060100B5
:102DD00080800080008080800F300C030C300F005A
:102DE00000808000808080000020312E0E31200085
:102DF000808080000080808080818E7018060100B5
:102E000000808080808080000021302C22213000D2
:102E100000000000807C020200000000003F4040F3
:102E200000000000FF00000000000000FF000000A4
:102E30000002027C800000000040403F00000000D3
:102E4000000601010202040400000000000000006E
:102E5000702E0008000000208408000020070008F1
:102E60005033000884080020CC0400002C1B00080C
:102E700010E57A0E700E650E5B0E500E450E3A0E82
:102E80002E0E230E170E0B0EFF0DF20DE50DD80DB5
:102E9000CB0DBE0DB00DA30D950D860D780D690DF2
:102EA0005A0D4B0D3C0D2C0D1C0D0C0DFC0CEB0CA0
:102EB000DB0CCA0CB90CA70C960C840C720C600CC1
:102EC0004E0C3B0C280C150C020CEF0BDB0BC80B4B
:102ED000B40BA00B8C0B770B630B4E0B390B240B35
:102EE0000F0BFA0AE50ACF0ABA0AA40A8E0A780A70
:102EF000620A4C0A360A1F0A090AF209DC09C509E6
:102F0000AF09980981096B0954093D09260910097F
:102F1000F908E208CB08B4089D088708700859082A
:102F200043082C081508FF07E907D207BC07A607C6
:102F300090077A0764074E07380722070D07F70640
:102F4000E206CD06B806A3068E067906650650068B
:102F50003C062806140640FD06ED05D905C605B356
:102F600005A0058D057A0568055505430531051F42
:102F7000050E05FC04EB04DA04C904B804A80497A0
:102F80000487047704670457044804390429041AA1
:102F9000040C04FD03EF03E003D203C403B703A949
:102FA000039C038E038103740368035B034F034395
:102FB0000337032B031F0313030803FD02F102E78A
:102FC00002DC02D102C702BC02B202A8029E029435
:102FD000028B02810278026F0265025C0254024B8E
:102FE0000242023A02320229022102190212020AA4
:102FF000020202FB01F301EC01E501DE01D701D081
:1030000001C901C301BC01B601AF01A901A3019D22
:1030100001970191018B01860180017A0175017090
:10302000016A01650160015B01560151014D0148D2
:103030000143013F013A01360131012D01290125EA
:103040000120011C011801140111010D01090105E4
:10305000010201FE84A24A04680901020304060772
:1030600008090C6910A502040608480804444444F1
:103070005F44C4066A043D22FF35081008071009A2
:1030800008CC4A49484ACC181F7F88888482E01BB4
:1030900026121252927F4A7E10100A2022A27E220D
:1030A00022FE22223A7C37280944424948484849AE
:1030B0007E05444A4140680AF8888C8A8988888855
:1030C000F85D196D2901192E2115404042CC180BCD
:1030D00010929292FF9191911010111E201F20408A
:1030E0005F3F2D48485F40401809FC044484042594
:1030F000C6040113E404380E40300F4040414E40F6
:103100004063504C4320400BFE021222C202C232E6
:1031100002FE1480601F1720100C030C302C0F309F
:1031200040731FFC2424242526051C24243C5F1006
:1031300008300F211549817F49060920A01B44C48E
:103140000B2009401010FF101010F0200F103C133E
:103150001014B840300E014080403F2A08011CF88E
:10316000898E401A880A19811D4020180738391E97
:1031700019302B10900139401B1116E01D206020E2
:103180003F4B111D030C1020A01D1060028CC42A9F
:10319000920129C1180A04047E01407E42427E0247
:1031A0002B427EE029C01AFCC129081A04C0800EF7
:1031B0008F80844C55252525554C8080803AFF888A
:1031C0002980116BFF410129C11810100C442414EF
:1031D0000405060404142444140C992A401B2A7F75
:1031E000052A405F111BFE4001111AFFB82A103F4B
:1031F000111C7F20209F2A3F16234078280DF801BC
:1032000022A0A2A222FE22AA3202A112FF280B10A3
:10321000130A4B20170C13388061200E8060F807CA
:1032200004E4A4A4BFA4A4E4041A01222D40407F16
:103230004A012A7F61100A03050911FF118905C39C
:1032400012E012F072F8073D4428FF11AA44700BF7
:10325000830138448292927401831E7C44C7017DAD
:1032600001990529A1319A0102818A010B01366970
:10327000419949FA0101A12A4001212A6D01212A1F
:103280006001791501642ADB010915072ADA012199
:103290002AD801212AC0010915072A800101352AEF
:1032A00006010918071CE66620076A86157A861C3F
:1032B0002A8601180A80808686068686C0C00C0E83
:1032C0001C0606D030764D2907013113601C12FE12
:1032D0001301021009C41820029E63B20E1DFF8163
:1032E00081FFF24440300F12FF180923EAAABFAA57
:1032F000EA033F0B012DBC808080080115240E0CD1
:10330000082A01013149041D81808081021901B917
:103310001706110101090C0E0A14C0012178081EBC
:1033200021404050215E08012A4DFFFFC1C1040920
:10333000232D101680FCF3EFF3FC80FF80EEEEEE01
:10334000F5FBFF9CBEB6B688FF1217A34C04000025
:04000005080000ED02
:00000001FF
